:0400000080312C28F7
:100008007E1480318B1E09280A2812280B1D0D2802
:100018000E2812288231E52280312A280B1E152845
:1000280016281E288B1C19281A281E2884311E24DD
:1000380080312A288B1D212822282A280B1C2528B4
:1000480026282A288331E42380312A287E100900B3
:1000580080312E287B308400823085002030860055
:10006800003087001B308331FB23803151308400FE
:10007800003085000C30843101248031A0308400A8
:100088000030850020308431012480317E1020002A
:1000980081315D29FA00780886008701403F2000F9
:1000A800BB00413FBC003B0884003C0885001200AF
:1000B800253A031D60286128A5287808860087014D
:1000C8000130810741310318810AD301D401D701D6
:1000D800D801FF30D500FF30D600780886008701A8
:1000E800403FBB00413FBC003B0884003C08850002
:1000F8001200253A031D812882289A28780886004C
:1001080087010130810741310318810A2530F00049
:100118000030F1007A08BB003B08F20081311C2155
:1001280080310130F8000030F900C72878088600CF
:1001380087010130810741310318810AF801F9016B
:10014800C728780886008701403FBB00413FBC00B4
:100158003B0884003C0885000008BD00BE013D083E
:10016800F0003E08F1007A08BF003F08F200813134
:100178001C218031780886008701013081074131D0
:100188000318810A952808002000C501C21FCD2840
:10019800CE28D528C109C209C10A0319C20AC50156
:1001A800C50AC01FD828D928DE28BF09C009BF0A38
:1001B8000319C00A3F0840040319E328E4280D295D
:1001C800C401C40AF0280130BF35C00D890BE828E6
:1001D8000130C3004308C407C01FF328F428E728E8
:1001E80040084202031DFA283F084102031CFD286B
:1001F800FE2802293F08C1024008C23B0130C03630
:10020800BF0C890B03290130C402031D0C290D29D9
:10021800F42845080319112912291729C109C20907
:10022800C10A0319C20A4208C0004108BF000800F9
:10023800720803192029212926297208031D252956
:1002480026292B29700884312B2481315C297208D6
:10025800083E860087011600010403193429352950
:1002680053297208083E86008701403FF300413F4A
:10027800F4007208023E86008701403FF500413FC6
:10028800F6007608803AF7007408803A7702031D72
:100298004F29730875020318522953295C297208DB
:1002A800023E860087010130810741310318810A27
:1002B800080082319622813119302000C50084302F
:1002C800C6008231C12281311330F0000030F100C4
:1002D80083318923813103302000BF000030C00002
:1002E80081319D2181317D082000C2007C08C10038
:1002F8008031C820813120003F08D0005008E30039
:1003080063080319882989296F29043063020318AF
:100318008E298F296F29FA300032890B9029200005
:1003280063088231052281312000E3016F29803181
:100338002C2820006708F3006608F2006508F10021
:100348006408F0004C30F7009530F6007F30F50077
:100358002D30F4008131D221813101307007200025
:10036800E4000030713DE5000030723DE6000030E9
:10037800733DE7006408BB006508BC006608BD0063
:100388006708BE001130BE36BD0CBC0CBB0C890B17
:10039800C7293C08FD003B08FC0008000030FB00B2
:1003A8000030FA000030F9000030F800701CDD2938
:1003B800DE29E6297408F8077508F93D7608FA3D3C
:1003C8007708FB3D0130F435F50DF60DF70D890B77
:1003D800E7290130F336F20CF10CF00C890BEE2909
:1003E8007308720471047004031DFB29FC29DA29BF
:1003F8007B08F3007A08F2007908F1007808F00029
:1004080008002000CC000930C9004908F0005B084A
:100418008231AC228231203E2000CA000330CB005A
:100428004B08F0004C088231AC22823120004A0788
:1004380086008701403FCD00413FCE00423FCF00BC
:100448004D08C9004908DB0001304D3E8600870190
:10045800413F8A00403F0A00823108002000C20064
:100468007C08C4007B08C300D101D2014C2A433068
:10047800C0004008F8007D08C1004108F9004208A2
:1004880080314E20823178082000D1077908D23D8A
:1004980043088400440885001200031D542A552A85
:1004A8003B2A5208FC005108FB00080022008C017E
:1004B8008D01FF3021008C0003308D0023008D0159
:1004C8000F308C0024008D018C012100951722002B
:1004D8009D019E0127001610151414142D30F000EC
:1004E8000430F10084310D2482318B15080000346A
:1004F800D23403340134C93403340234C0340334ED
:100508000134B73403340134AE3403340234A5342F
:10051800033402349C3403340234933403340234F5
:10052800DB34033482315A2282318331ED23823124
:100538008431232482318331F423823183317D2332
:1005480082318231D32282318431272482310800DA
:10055800F300F201731CB12AB22AB62A7008F1001E
:100568007108F2070310F00D0310F30C7308031D54
:10057800BE2ABF2AAE2A7208080047302000C700EA
:100588004708C8004608FC004508FB004830C7007B
:100598004708FD00003082313222823108002100F4
:1005A8001508C0393F38950020009501DC010B1172
:1005B8008B162C30F0000430F1008431072482318E
:1005C80008000B1120005C0895005F0860040319FF
:1005D800EE2AEF2AF42A60088A005F080A008231AE
:1005E80008002000610862040319FB2AFC2A012B79
:1005F80062088A0061080A00833127001610080083
:1006080020005D085E0403190A2B0B2B102B5E08D3
:100618008A005D080A008331080061346334743449
:1006280069346F346E3431342E34313420340A3422
:10063800003461346334743469346F346E34323462
:100648002E34313420340A34003461346334743441
:1006580069346F346E3433342E34313420340A34F0
:10066800003461346334743469346F346E34313433
:100678002E34323420340A34003461346334743410
:1006880069346F346E3432342E34323420340A34C0
:10069800003461346334743469346F346E34333401
:1006A8002E34323420340A340034613463347434E0
:1006B80069346F346E3431342E34333420340A3490
:1006C800003461346334743469346F346E343234D2
:1006D8002E34333420340A340034613463347434AF
:1006E80069346F346E3433342E34333420340A345E
:1006F80000348B10210015132E30F0000430F10067
:100708008431132483310B1608007008FF3E200043
:10071800E400FF30713DE500E601E70108004D30D7
:100728002000C5008330C6008231C1228331080011
:1007380029302000C5008330C6008231C1228331B0
:10074800080065302000C5008330C6008231C12210
:100758008331080041302000C5008330C600823153
:10076800C122833108001D302000C5008330C60037
:100778008231C1228331080059302000C5008330FE
:10078800C6008231C1228331080035302000C500FF
:100798008330C6008231C122833108001130200025
:1007A800C5008330C6008231C12283310800713010
:1007B8002000C5008330C6008231C1228331080081
:1007C8002700161CE82BE92BEC2B8231F52283310C
:1007D800080038302100990098012200960108008D
:1007E80021009E019B019C0101309D000800FE0034
:1007F80012001E00FE0BFC2B003464008001013146
:10080800890B022C003471082000E0007008DF001A
:10081800080071082000E2007008E1000800710873
:100828002000DE007008DD0008005434653473349D
:10083800743400348B10833104238431080016305B
:10084800210097000800B03027009A00080008002F
:0608580008000800080082
:020000040001F9
:08000000FF3FFF3FFF3FFF3F00
:04000E00E43FFF3E8E
:00000001FF
